:040000000C94FC015F
:040038000C94CE1046
:040048000C94BF0B4A
:040074000C94741064
:040084000C945A1965
:14008C001C0D1F0D220D250D280D2B0D2E0D460D490D430D09
:1400A000400D3D0D3A0D370D340D310D000020410000004109
:1400B400FBCB96400000C040F90FC93F00003443F90F494084
:1400C800F90FC9400000803F00000000000000000000000054
:1400DC0000000101000001000000000000000000000000000D
:1400F00000000000FFF0E1D2C3B4A5968778695A4B3C2D0032
:140104000000000000000000000000000000000000000000E7
:140118000000000000000000000000000000000000000000D3
:14012C000000000000000000000000000000000000000000BF
:140140000000000000000000000000000000000000000000AB
:1401540000000000000050780000000000020C11030D12048A
:140168000E13050F140610150711160812170913180A141945
:14017C000B151A0C161B0D171C0E181D0F191E101A1F111BBA
:1401900020000000000000000000000000000000000000003B
:1401A400000000000000000000000000000000000000000047
:1401B800000000000000000000000000000000000000000033
:1401CC0000000000000000000000000000000000000000001F
:1401E00000000000000000000000000000000000000000000B
:1401F4000000000000000000000000000000000000000000F7
:140208000000000000000000000000000000000000000000E2
:14021C000000000000000000000000000000000000000000CE
:140230000000000000000000000000000000000000000000BA
:140244000000000000000000000000000000000000000000A6
:1402580000000000003C3700302B00241F001B1600120D0031
:14026C0009040006010000000000000000000000000000006A
:1402800000000000000000000000000000000000000000006A
:14029400000000000000000000000000000000000000000056
:1402A800000000000000000000000000000000000000000042
:1402BC0000000000000000000000000000000000000000002E
:1402D00000000000000000000000000000000000000000001A
:1402E400000000000000000000010000000F00000F000000E7
:1402F80000FF000001000000000000000000FFF7EFDF00FF2F
:14030C00F0E1D2C3B4A5968778695A4B3C2D3C370036310038
:14032000302B002A25001E1900120D00060100000000C4FFFF
:14033400BFFFBAFFCAFFC5FFC0FFD0FFCBFFC6FFD6FFD1FFEF
:14034800CCFFE2FFDDFFD8FFEEFFE9FFE4FFFAFFF5FFF0FFAE
:14035C0000000000000006000100FCFF0C0007000200120064
:140370000D0008001E00190014002A002500200030002B004F
:140384002600360031002C003C003700320000000000000007
:14039800000000000000000000000000000000000000000051
:1403AC0000000000000000000000000000000000000000003D
:1403C00050780F1419020C11030D12040E13050F140610156C
:1403D4000711160812170913180A14190B151A0C161B0D17B0
:0F03E8001C0E181D0F191E101A1F111B20F800D4
:1403F800CFEFD0E1CDBFDEBFC051D0400AEA08830024E3E2D0
:14040C00F4E014E0E433F10711F00192FBCF0083E4EDF0E083
:14042000A0E0B1E013E000E00BBFE73FF10721F0C8953196C7
:140434000D92F9CF0E941B11FFCF0E94351A249700ED10E028
:140448000E948C1A088319832A833B8314C0288039804A80C7
:14045C005B800CEC10E00E948C1A3A932A931A930A9381012B
:1404700092010E946F1B088319832A833B83088119812A8159
:140484003B81CE0104969A938A930E948E1D0CF3289608954E
:140498000027112702C00F5F1F4F0637E4E01E07D0F30895CD
:1404AC000E94D21A58014427552703C0EFDF4F5F5F4F4A1522
:1404C0005B05D0F30C94D71A22242BBA2ABA25BA24BA8EEF2B
:1404D40083B982B984EF88BB87BB8CEF82BB81BB8FEF809320
:1404E80062008FE080936100209265002092640008952224AB
:1404FC0020928A0020928900209288002092870020928600CA
:14051000209285002092840020928300209282008EEF809371
:140524008B008AE180938A00089522242EBC2DBC2CBC2BBCAB
:140538002ABC29BC28BC20927900209278008EEF8FBD8AE177
:14054C008EBD089522242AB82BB886E0809395002092900058
:1405600083E389B92BB888E98AB90895F89422242CBE20923D
:140574006D00A8DFEBDF222425BE20926A002ABE29BE84E439
:1405880087BF84E080937D00789408955D9BFECF0CB9089555
:14059C005D9BFECF0CB908950E94D21A580107C0FA01EA0D84
:1405B000FB1D0081F3DF4F5F5F4FFA01EA0DFB1D2080222084
:1405C40099F70C94D71A0E94CB1AC22EE02E2C97AA88BB8845
:1405D800CC2029F400ED10E00E948C1A9AC108EC10E00E9400
:1405EC008C1A180129010E2D11270E94C31B380149010C2D63
:1406000011270E94C31B3A932A931A930A93830194010E949F
:14061400041C810192010E94681D1801290104EC10E00E94B1
:140628008C1A3801490185010E94C31B3A932A931A930A93BB
:14063C00830194010E94681D3801490100EC10E00E948C1AC3
:140650003A932A931A930A93830194010E94041C81019201D2
:140664000E94841B088319832A833B83CE0108EC10E00E945A
:140678008C1A9A938A930E948E1DACF4288039804A805B808B
:14068C0008EC10E00E948C1A3A932A931A930A938101920145
:1406A0000E94841B088319832A833B8325C0288039804A8063
:1406B4005B8000ED10E00E948C1A3A932A931A930A938101DC
:1406C80092010E94991DA4F4288039804A805B8008EC10E0B1
:1406DC000E948C1A3A932A931A930A93810192010E946F1BAD
:1406F000088319832A833B83CE010CEB10E00E948C1A9A9339
:140704008A930E948E1D34F1288039804A805B808101920137
:14071800CE019A938A930E945E1DCE019A938A930E945E1D61
:14072C003801490108EB10E00E948C1A3A932A931A930A9337
:14074000830194010E94041C810192010E94841B0887198745
:140754002A873B87CE010CEB10E00E948C1A9A938A930E9434
:140768008E1D0CF040C0CE0104EC10E00E948C1A9A938A9395
:14077C000E948E1D0CF435C004EC10E00E948C1ACE019A9303
:140790008A930E947A1B0C831D832E833F832C803D804E8028
:1407A4005F8081019201CE0104969A938A930E945E1DCE01AE
:1407B80004969A938A930E945E1D3801490108EB10E00E9424
:1407CC008C1A3A932A931A930A93830194010E94041C810142
:1407E00092010E94841B088719872A873B87CE0104EC10E0E0
:1407F4000E948C1A9A938A930E948E1D0CF047C0CE0104EB51
:1408080010E00E948C1A9A938A930E948E1D0CF43CC0288069
:14081C0039804A805B8004EC10E00E948C1A3A932A931A930B
:140830000A93810192010E94841B0C831D832E833F830C8192
:140844001D812E813F81CE0104969A938A930E945E1DCE01F4
:1408580004969A938A930E945E1D1801290108EB10E00E94C3
:14086C008C1A3A932A931A930A93810192010E94EE1BCE016F
:1408800004969A938A930E947A1B088719872A873B87CE01D8
:1408940004EB10E00E948C1A9A938A930E948E1D0CF035C0A1
:1408A80008EC10E00E948C1ACE019A938A930E947A1B0C8331
:1408BC001D832E833F830C811D812E813F81CE0104969A93E5
:1408D0008A930E945E1DCE0104969A938A930E945E1D1801F1
:1408E400290108EB10E00E948C1A3A932A931A930A93810155
:1408F80092010E94EE1BCE0104969A938A930E947A1B088735
:14090C0019872A873B87088519852A853B852C960C94B51AF9
:140920004A93442722C084E191E0E42FFF27E80FF91F1081EA
:140934000AE00103C001880F991F880F991F880F991F9595E9
:14094800879595958795959587950197E4ECF3E0A42FBB2703
:14095C00AA0FBB1FAE0FBF1F8D939C9343954330E0F2499113
:1409700008954A93442725C0242E3324220C331C8AEC93E09A
:14098400F101E80FF91F208131810AE010E00E94A01AC8010C
:14099800880F991F880F991F880F991F9595879595958795D2
:1409AC00959587950197E3EDF3E0D101AE0FBF1F8D939C93FA
:1409C00043954330C8F2499108950E94EA1A229780910E0326
:1409D4008130E1F4222420920E03AA2414C02A2C3324220C03
:1409E800331C210185EE93E0F101E80FF91F208031808FEDD6
:1409FC0093E0F201E80FF91F31822082A3948A2D833048F341
:140A100080910D03813009F0C8C02090050180E0821508F0DA
:140A2400C2C022E030E00091060111270E943E1A33240215F2
:140A380013050CF4B6C0AA2445C0CA2CDD24CC0CDD1C8FED05
:140A4C0093E0F601E80FF91F2080318083ED93E0F601E80FFB
:140A6000F91F408051804218530822E030E000910601112742
:140A74000E943E1A980182010E943E1A89ED93E0F601E80F87
:140A8800F91F11830083CA2CDD24CC0CDD1CF601E80FF91F5D
:140A9C00008111812091050133270E94A01A8FED93E0F601E0
:140AB000E80FF91F20803180200E311E85EE93E0F601E80F81
:140AC400F91F31822082A3948A2D833008F4B7CFAA2464C09C
:140AD8008BEE93E0EA2DFF27E80FF91F208033243982288276
:140AEC0020910001009101016ADD18012901CA2CDD24CC0C58
:140B0000DD1C00EB10E00E948C1A380149010CEA10E00E94BA
:140B14008C1AA801B9018EEE93E0EA2DFF27E80FF91F008108
:140B280011270E94C31B5A924A923A922A920E94731D8A01F4
:140B3C009B010E94731D830194010E94681D0E948F1B180132
:140B500035942794359427943594279484EC93E0F601E80F34
:140B6400F91F408051806090280470902904640C751C85EE17
:140B780093E0F601E80FF91F40805180640C751CC301820D0B
:140B8C00931D0197EEEBF3E0D601AE0FBF1F8D939C93A39469
:140BA0008A2D833008F498CF6DC0222420920D03AA2464C04D
:140BB4008BEE93E0EA2DFF27E80FF91F208033243982288299
:140BC8002091000100910101FCDC18012901CA2CDD24CC0CEA
:140BDC00DD1C00EB10E00E948C1A380149010CEA10E00E94DE
:140BF0008C1AA801B9018EEE93E0EA2DFF27E80FF91F00812C
:140C040011270E94C31B5A924A923A922A920E94731D8A0117
:140C18009B010E94731D830194010E94681D0E948F1B180155
:140C2C0035942794359427943594279484EC93E0F601E80F57
:140C4000F91F408051806090280470902904640C751C83ED3D
:140C540093E0F601E80FF91F40805180640C751CC301820D2E
:140C6800931D0197EEEBF3E0D601AE0FBF1F8D939C93A3948C
:140C7C008A2D833008F498CF22960C94F31A8FE19EE490931D
:140C90002704809326048BED95E0909329048093280483E801
:140CA40093E090932D0480932C0483E398E090932B048093EF
:140CB8002A0408954A935A93222311F4402F5527213031F4E8
:140CCC00402F5527409550954F5F5F4F8A0159914991089527
:140CE000AA92BA92AA80BB8022242092090111C03090090176
:140CF400E32DFF27E00FF11F2080E32DFF27E20FF31F20823C
:140D0800809109018F5F8093090187E020900901821550F7B2
:140D1C0088E08093090112C030900901E32DFF27E00FF11F6D
:140D30002080E32DFF273897EA0DFB1D2082809109018F5F50
:140D4400809309018FE020900901821548F7B990A990089560
:140D5800AA92BA92AA80BB8022242092090111C030900901FD
:140D6C00E32DFF27E20FF31F2080E32DFF27E00FF11F2082C3
:140D8000809109018F5F8093090187E020900901821550F73A
:140D940022242092090111C030900901E32DFF27EA0DFB1D69
:140DA8002080E32DFF27E00FF11F2086809109018F5F8093A0
:140DBC00090187E020900901821550F7B990A99008950E9459
:140DD000CD1ACC80DD80AE80BF8022242092090111C030907F
:140DE4000901E32DFF27E00FF11F2080E32DFF27E20FF31FE3
:140DF8002082809109018F5F8093090187E020900901821567
:140E0C0050F788E08093090112C030900901E32DFF27E00F45
:140E2000F11F2080E32DFF273897EC0DFD1D20828091090139
:140E34008F5F809309018FE020900901821548F780E180932C
:140E4800090112C0C0900901EC2DFF27E00FF11F2080EC2D69
:140E5C00FF277097EA0DFB1D2082809109018F5F809309017E
:140E700087E120900901821548F70C94B01A0E94CD1ACC8037
:140E8400DD80AE80BF8022242092090111C030900901E32DE3
:140E9800FF27E20FF31F2080E32DFF27E00FF11F2082809195
:140EAC0009018F5F8093090187E020900901821550F72224D8
:140EC0002092090111C030900901E32DFF27EC0DFD1D2080DE
:140ED400E32DFF27E00FF11F2086809109018F5F8093090109
:140EE80087E020900901821550F722242092090111C0C090D4
:140EFC000901EC2DFF27EA0DFB1D2080EC2DFF27E00FF11FAC
:140F1000208A809109018F5F8093090187E020900901821545
:140F240050F70C94B01A0E94C71A6A857B854C855D85EE8471
:140F3800FF84C888D988AA88BB8822242092090111C0309069
:140F4C000901E32DFF27E00FF11F2080E32DFF27E20FF31F79
:140F60002082809109018F5F8093090187E0209009018215FD
:140F740050F788E08093090112C030900901E32DFF27E00FDC
:140F8800F11F2080E32DFF273897E60FF71F208280910901D8
:140F9C008F5F809309018FE020900901821548F780E18093C3
:140FB000090112C060910901E62FFF27E00FF11F2080E62F67
:140FC400FF277097E40FF51F2082809109018F5F809309011D
:140FD80087E120900901821548F788E18093090112C04091E4
:140FEC000901E42FFF27E00FF11F2080E42FFF277897EE0DCC
:14100000FF1D2082809109018F5F809309018FE120900901CE
:14101400821548F780E28093090112C0E0900901EE2DFF27E6
:14102800E00FF11F2080EE2DFF27B097EC0DFD1D20828091C7
:14103C0009018F5F8093090187E220900901821548F788E228
:141050008093090112C0C0900901EC2DFF27E00FF11F208065
:14106400EC2DFF27B897EA0DFB1D2082809109018F5F80931D
:1410780009018FE220900901821548F70C94BC1A0E94C71A60
:14108C006A857B854C855D85EE84FF84C888D988AA88BB8893
:1410A00022242092090111C030900901E32DFF27E20FF31F66
:1410B4002080E32DFF27E00FF11F2082809109018F5F809395
:1410C800090187E020900901821550F722242092090111C038
:1410DC0030900901E32DFF27E60FF71F2080E32DFF27E00F30
:1410F000F11F2086809109018F5F8093090187E020900901EF
:14110400821550F722242092090111C060910901E62FFF27F0
:14111800E40FF51F2080E62FFF27E00FF11F208A809109011D
:14112C008F5F8093090187E020900901821550F722242092AD
:14114000090111C040910901E42FFF27EE0DFF1D2080E42FE2
:14115400FF27E00FF11F208E809109018F5F8093090187E027
:1411680020900901821550F722242092090111C0E09009018E
:14117C00EE2DFF27EC0DFD1D2080EE2DFF27E00FF11F20A269
:14119000809109018F5F8093090187E020900901821550F726
:1411A40022242092090111C0C0900901EC2DFF27EA0DFB1DBC
:1411B8002080EC2DFF27E00FF11F20A6809109018F5F809363
:1411CC00090187E020900901821550F70C94BC1AAA92003024
:1411E00020F087E0801708F0A02E073040F08EE0801728F0A3
:1411F400802F875097E0A92EA81A0F3009F4AA240A2DA990D7
:1412080008954A9386E0801710F041E001C04427042F499101
:14121C0008950E94C71AA901E02ECA84DB846C8580EAFA01E3
:141230008083E182AA24BB240BC0F501EC0DFD1D2080F5012D
:14124400E40FF51F2282C50101965C01862F992701978A1585
:141258009B057CF7262F2E5F8A010E9402190C94BC1A0E942D
:14126C00C71AB901E02ECA84DB84AC8480EAFB018083E1821C
:1412800022E08F010E94021981EAFB0180832A2D2F5F8F012C
:141294000E9402192A2D2F5F8B010E943A19442755270AC072
:1412A800FA01E60FF71F2180FA01EC0DFD1D20824F5F5F4F7F
:1412BC008A2D992701978417950784F70C94BC1A4A935A931D
:1412D0002A970BEA5FD94091230455274F7050704130E0E0F8
:1412E4005E0709F438C04230E0E05E0709F43EC04330E0E0D7
:1412F8005E0709F444C04430E0E05E0709F44AC04530E0E0A7
:14130C005E0709F466C04630E0E05E0709F46CC04730E0E04A
:141320005E0709F498C04830E0E05E0709F4ABC04930E0E0C1
:141334005E0709F4B1C04A30E0E05E0709F4B7C04B30E0E084
:141348005E0709F4CAC04C30E0E05E0709F4DEC00EC281E038
:14135C008A838BE091E0998388832CE031E000E158DF03C273
:1413700081E08A8380E191E09983888321E131E000E24DDFE1
:14138400F8C183E08A8387E191E0998388832AE131E000E32D
:1413980042DFEDC189E491E09983888321E431E00FE111E076
:1413AC0099DC88E08A8381E491E09983888321E731E000E449
:1413C0002EDF08EC10E072D888E08A8389E491E09983888364
:1413D4002BE731E008E421DFCCC183E08A8385E891E09983FF
:1413E800888328E831E000E516DFC1C185EE91E09987888756
:1413FC008DED91E09F838E8385ED91E09D838C838DEC91E0C3
:141410009B838A8385EC91E0998388832DEB31E00DE811E085
:1414240082DD88E08A838DEB91E0998388832DE432E000E6C7
:14143800F2DE08EC10E036D888E08A8385EC91E09983888360
:14144C0027E532E008E6E5DE90C188E08A838DEC91E09983F1
:14146000888321E632E000E7DADE08EC10E01ED888E08A8366
:1414740085ED91E0998388832BE632E008E7CDDE78C188E0FC
:141488008A838DED91E09983888325E732E000E8C2DE6DC15D
:14149C0088E08A8385EE91E0998388832FE732E008E8B7DE0F
:1414B00062C181EB92E09B838A8389EA92E09983888321EAE5
:1414C40032E009E812E081DC88E08A8381EA92E09983888349
:1414D80029EE32E000E99FDE4AC188E08A8389EA92E09983F0
:1414EC00888323EF32E008E994DE08EC10E00E94560288E014
:141500008A8381EB92E0998388832DEF32E000EA86DE31C157
:1415140008EC10E00E94560281E08A838AE091E09983888375
:141528002CE031E000E19DDE81E08A838FE091E099838883C1
:14153C0021E131E000E293DE83E08A8384E191E099838883C8
:141550002AE131E000E389DE88E08A8381E691E099838883AD
:1415640021E731E000E47FDE88E08A8389E691E0998388839D
:141578002BE731E008E475DE89E691E09983888321E631E0DE
:14158C0001E511E0E3DB4427552781E591E0FA01E80FF91FEE
:1415A000208086E393E0FA01E80FF91F20824F5F5F4F8FE044
:1415B40090E0841795076CF783E08A838BEE93E09983888396
:1415C80028E831E000E54DDE88E08A838DE192E09983888362
:1415DC002DE432E000E643DE88E08A8385E292E0998388835C
:1415F00027E532E008E639DE88E08A838DE292E09983888347
:1416040021E632E000E72FDE88E08A8385E392E0998388834F
:141618002BE632E008E725DE88E08A838DE392E0998388832B
:14162C0025E732E000E81BDE88E08A8385E492E09983888334
:141640002FE732E008E811DE85E492E0998788878DE392E0A3
:141654009F838E8385E392E09D838C838DE292E09B838A833A
:1416680085E292E0998388832DE132E00DEE11E007DD442713
:14167C00552723E030E08A010E943E1A83E090E098018C014D
:141690000E94A01A81EF93E01801280E391E23E030E08A01C3
:1416A4000E943A1AF801E20DF31D8DEE91E0DA01A80FB91FEE
:1416B8002C9020824F5F5F4F8FE290E084179507D4F688E01A
:1416CC008A8381ED92E09983888329EE32E000E9C6DD88E0D9
:1416E0008A8389ED92E09983888323EF32E008E9BCDD88E0C4
:1416F4008A8381EE92E0998388832DEF32E000EAB2DD81EEB7
:1417080092E09B838A8389ED92E09983888321ED32E009EB0D
:14171C0012E0AFDB4427552723E030E08A010E943E1A83E05B
:1417300090E098018C010E94A01A86E493E01801280E391E30
:1417440023E030E08A010E943A1AF801E20DF31D89EB92E01F
:14175800DA01A80FB91F2C9020824F5F5F4F87E190E08417E6
:14176C009507D4F60CEC0E94CA022A965991499108950A92E0
:141780001A922A923A924A925A926A927A928A929A920A936C
:141794001A932A933A938A939A93AA93BA93EA93FA930FB667
:1417A8000A920E94D21A2CB02092250420900703222009F453
:1417BC0015C420900903222009F401C480911703813019F497
:1417D00041E050E002C0442755272090240333242A01422848
:1417E4005328442011F4552091F0809125048C3F31F481E08C
:1417F80080931403809319035AC422242092070320920903A6
:14180C002092170352C4409125045527407F50704036E0E0BB
:141820005E0709F493C180E690E0841795070CF42FC0403290
:14183400E0E05E0709F49CC080E290E0841795077CF040303D
:14184800450709F475C04030E0E05E070CF4B3C34031E0E0D2
:14185C005E0709F47AC0ADC34034E0E05E0709F495C080E41D
:1418700090E08417950734F04033E0E05E0709F4AFC09DC335
:141884004035E0E05E0709F40AC197C3403CE0E05E0709F4F6
:14189800ABC280EC90E08417950784F04037E0E05E0709F4AF
:1418AC0084C04037E0E05E070CF483C3403BE0E05E0709F465
:1418C00051C17DC3403EE0E05E0719F180EE90E08417950700
:1418D4002CF0403DE0E05E0739F06FC3403FE0E05E0709F446
:1418E8005FC369C3209025042092020181E080930B03222448
:1418FC0020921A032092230380931703209025042092240451
:14191000D2C3209025042092020181E080930C032224209225
:141924001A0320922303809317032090250420922404BFC358
:1419380081E080930F03222420921A032092230380931703FB
:14194C002090250420922404B0C381E08093100322242092E2
:141960001A0320922303809317032090250420922404A1C33A
:14197400809113038F5F80931303222420921A032092230334
:1419880081E08093170320902504209224048FC381E0809344
:14199C001203222420921A032092230380931703209025042F
:1419B0002092240480C381E080931A032224209223032092A5
:1419C4001B0320921C038FE080931D0381E080931703209040
:1419D800250420922D036BC381E080932303809324032224A8
:1419EC0020921A032092260320922703809328032092290345
:141A00002090250420922A03422D55274030E0E05E070CF49A
:141A14003EC08FE090E0841795070CF438C08CE890E0FA01D3
:141A2800EE0FFF1FE80FF91F27903690F10109948FEF8093E3
:141A3C00250380EF8093250380EE8093250380ED8093250373
:141A500080EC8093250380EB8093250380EA809325038FEF12
:141A6400809325038FEF8093250380EF8093250380EE80934F
:141A7800250380ED8093250380EC8093250380EB809325033D
:141A8C002224209223032090000120922B0381E08093170309
:141AA0000AC381E08093170380912504853509F002C301E143
:141AB4000E94CA0200910A010E94CA0200910F010F5F0E94F5
:141AC800CA02009114010E94CA02009115010E94CA02009184
:141ADC0016010E94CA0200912C030E94CA02009100010E940F
:141AF000CA020091EE030E94CA020091EF030E94CA020091A4
:141B0400F0030E94CA0200912E030E94CA02009130030E94D6
:141B1800CA020091D0030E94CA020091D1030E94CA020091B7
:141B2C00D2030E94CA020091EB030E94CA020091EC030E9453
:141B4000CA020091ED030E94CA02B5C281E0809317038091C0
:141B54002504863609F0ADC281E080933103A9C281E08093A9
:141B6800170380912504813B79F480910001815080930001F5
:141B7C0081E591E0E0912C03FF27E80FF91F20900001208256
:141B900080912504823B79F4809100018F5F8093000181E563
:141BA40091E0E0912C03FF27E80FF91F209000012082809183
:141BB8002504833B61F500912E030CDB00932F0300912E03AC
:141BCC001EDB009330032090D003222009F405C08091D003DB
:141BE00081508093D003209130030091D00366D85801B09219
:141BF400CB03A092CA030E94B90410912F0303E0010386E48D
:141C080093E0F001E80FF91F2090D003208280912504843B37
:141C1C0039F500912E03DCDAA02EA0922F0300912E03EDDA53
:141C3000A02EA09230038091D0038F5F8093D0032A2D082F27
:141C44003BD85801B092CB03A092CA030E94B90410912F03DF
:141C580003E0010386E493E0F001E80FF91F2090D00320828F
:141C6C0080912504853B71F500912E03B1DAA02EA0922F0385
:141C800000912E03C2DAA02EA09230032090D103222009F4FC
:141C940005C08091D10381508093D103209130030091D10391
:141CA80009D85801B092CD03A092CC030E94B90410912F03A9
:141CBC0003E0010387E493E0F001E80FF91F2090D103208229
:141CD00080912504863B41F500912E037FDAA02EA0922F0382
:141CE40000912E0390DAA02EA09230038091D1038F5F8093A7
:141CF800D1032A2D082F0E945E065801B092CD03A092CC0304
:141D0C000E94B90410912F0303E0010387E493E0F001E80FE4
:141D2000F91F2090D103208280912504873B79F500912E0345
:141D340053DAA02EA0922F0300912E0364DAA02EA092300309
:141D48002090D103222009F405C08091D10381508093D10362
:141D5C00209130030091D2030E945E065801B092CF03A09284
:141D7000CE030E94B90410912F0303E0010388E493E0F001A5
:141D8400E80FF91F2090D203208280912504883B41F5009151
:141D98002E0320DAA02EA0922F0300912E0331DAA02EA0920D
:141DAC0030038091D2038F5F8093D2032A2D082F0E945E06A0
:141DC0005801B092CF03A092CE030E94B90410912F0303E08A
:141DD400010388E493E0F001E80FF91F2090D2032082009160
:141DE80025040E94CA0263C181E08093170380912504813CA7
:141DFC00B1F42090EE03222009F405C08091EE0381508093A3
:141E1000EE0310912C0303E0010381EF93E0F001E80FF91F33
:141E24002090EE03208280912504823CB1F48091EE038A3509
:141E380009F405C08091EE038F5F8093EE0310912C0303E02D
:141E4C00010381EF93E0F001E80FF91F2090EE032082809147
:141E60002504833CB1F42090EF03222009F405C08091EF0338
:141E740081508093EF0310912C0303E0010382EF93E0F001F8
:141E8800E80FF91F2090EF03208280912504843CB1F4809143
:141E9C00EF038A3509F405C08091EF038F5F8093EF03109128
:141EB0002C0303E0010382EF93E0F001E80FF91F2090EF0382
:141EC400208280912504853CB1F42090F003222009F405C021
:141ED8008091F00381508093F00310912C0303E0010383EFF2
:141EEC0093E0F001E80FF91F2090F003208280912504863C2E
:141F0000B1F48091F0038A3509F405C08091F0038F5F80939E
:141F1400F00310912C0303E0010383EF93E0F001E80FF91F2A
:141F28002090F003208280912504873C51F42090EC0322203D
:141F3C0009F405C08091EC0381508093EC0380912504883CFE
:141F500051F48091EC038F3F09F405C08091EC038F5F8093A7
:141F6400EC0380912504893C51F42090ED03222009F405C092
:141F78008091ED0381508093ED0380912504803C51F4809134
:141F8C00ED038F3F09F405C08091ED038F5F8093ED0300913E
:141FA00025040E94CA0287C0809125048C3F09F082C081E0AE
:141FB40080931403809319037CC022242092070320920903C4
:141FC80076C080910A01806920902504281621F481E080932A
:141FDC0009036BC022242092070367C020900803222009F497
:141FF00054C020900A03222009F443C020901803222091F03C
:14200400809125048B3F31F481E080931603809319034FC0D4
:1420180022242092080320920A032092180347C04091250424
:14202C005527407F50704038E0E05E0749F04038E0E05E0732
:14204000CCF04B3FE0E05E0759F014C0209025042092230452
:1420540081E080931503809318032BC0809125048B3F39F5A1
:1420680081E0809316038093190321C081E080930803222402
:14207C0020920A031AC080912504843721F481E080930A032C
:1420900012C02224209208030EC0809125048A3A19F481E02D
:1420A40080930703809125048C3C19F481E0809308030E94DB
:1420B800D71A09900FBEF991E991B991A99199918991399127
:1420CC00299119910991999089907990699059904990399033
:1420E00029901990099018950A921A922A923A924A925A92AC
:1420F4006A927A928A929A920A931A932A933A938A939A936A
:14210800AA93BA93EA93FA930FB60A9222242092890020929B
:14211C00880020900001222059F0809101018F5F80930101D5
:14213000122D082F0E94741A00930101809105018F5F809348
:142144000501209000013324482E55242414350414F420925F
:1421580005010E94E5042090C2033090C303309287002092EC
:14216C00860009900FBEF991E991B991A991999189913991DD
:1421800029911991099199908990799069905990499039907E
:1421940029901990099018950A921A922A923A924A925A92F7
:1421A8006A927A928A929A920A931A932A933A938A939A93B5
:1421BC00AA93BA93EA93FA930FB60A9222242DBC2CBC209053
:1421D0000001222059F0809101018F5F80930101122D082FE3
:1421E4000E94741A009301010E94E5042090BE033090BF03A4
:1421F8003BBC2ABC2090C0033090C10339BC28BC09900FBEC0
:14220C00F991E991B991A9919991899139912991199109912A
:142220009990899079906990599049903990299019900990E0
:1422340018952A970E94B6020E94EE18789481E08A838AE042
:1422480091E0998388832CE031E000E10AD881E08A838FE02D
:14225C0091E09983888321E131E000E200D883E08A8384E134
:1422700091E0998388832AE131E000E30E94350988E08A836E
:1422840081E691E09983888321E731E000E40E94350988E002
:142298008A8389E691E0998388832BE731E008E40E9435092F
:1422AC0089E691E09983888321E631E001E511E00E94AC06D4
:1422C00044270FC081E591E0E42FFF27E80FF91F208086E3A8
:1422D40093E0E42FFF27E80FF91F208243958FE0841770F750
:1422E80083E08A838BEE93E09983888328E831E000E50E94B7
:1422FC00350988E08A838DE192E0998388832DE432E000E60B
:142310000E94350988E08A8385E292E09983888327E532E046
:1423240008E60E94350988E08A838DE292E09983888321E653
:1423380032E000E70E94350988E08A8385E392E09983888342
:14234C002BE632E008E70E94350988E08A838DE392E0998318
:14236000888325E732E000E80E94350988E08A8385E492E028
:14237400998388832FE732E008E80E94350985E492E099873B
:1423880088878DE392E09F838E8385E392E09D838C838DE2A5
:14239C0092E09B838A8385E292E0998388832DE132E00DEE75
:1423B00011E00E94440844271FC013E0042F0E94761A83E035
:1423C400102F082F0103100181EF93E0280E391E23E030E0F7
:1423D800042F11270E943A1AF801E20DF31D8DEE91E0A42FD9
:1423EC00BB27A80FB91F2C90208243958FE28417F0F688E0DC
:142400008A8381ED92E09983888329EE32E000E90E943509C2
:1424140088E08A8389ED92E09983888323EF32E008E90E9479
:14242800350988E08A8381EE92E0998388832DEF32E000EACD
:14243C000E94350981EE92E09B838A8389ED92E09983888391
:1424500021ED32E009EB12E00E943F0744271FC013E0042F1A
:142464000E94761A83E0102F082F0103100186E493E0280E31
:14247800391E23E030E0042F11270E943A1AF801E20DF31D8D
:14248C0089EB92E0A42FBB27A80FB91F2C902082439587E174
:1424A0008417F0F6F8940E947D020E94970278940E944506C6
:1424B4000E9490040E94E504F894222420928A002EBC2090AB
:1424C800260430902704309281002092800037BC26BC2090F1
:1424DC00BE033090BF033BBC2ABC2090C0033090C10339BCE0
:1424F00028BC2090C2033090C303309287002092860078946C
:142504008AE180938A008EBD64C680911903813009F00AC5A0
:1425180020903103222009F46EC1222420923103809104011B
:14252C008F5F80930401682F77276130E0E07E0749F16230BE
:14254000E0E07E0709F44DC06330E0E07E0709F458C06430B7
:14255400E0E07E0709F4A0C06530E0E07E0709F4BAC06630EA
:14256800E0E07E0709F4D4C06730E0E07E0709F4DFC0683079
:14257C00E0E07E0709F41BC16930E0E07E0709F426C137C173
:1425900089E691E09983888321E631E001E511E00E94700629
:1425A40088E08A8381E691E09983888321E731E000E40E9410
:1425B8000F0908EC10E00E94560288E08A8389E691E09983A8
:1425CC0088832BE731E008E40E940F09009104010E94CA0223
:1425E0000EC183E08A838BEE93E09983888328E831E000E58F
:1425F4000E940F09009104010E94CA02FEC044271EC0AA2440
:1426080018C003E0142F010381EF93E01001280E391EEA2D24
:14261C00FF27E20DF31D20803A2C4424F001E30DF41D8DEEAA
:1426300091E0E80FF91F2082A39482E08A1528F743958FE0D6
:142644008417F8F685E492E0998788878DE392E09F838E83DA
:1426580085E392E09D838C838DE292E09B838A8385E292E080
:14266C00998388832DE132E00DEE11E00E94950788E08A8374
:142680008DE192E0998388832DE432E000E60E940F090091EB
:1426940004010E94CA02B1C088E08A8385E292E099838883D9
:1426A80027E532E008E60E940F0908EC10E00E94560288E012
:1426BC008A838DE292E09983888321E632E000E70E940F093B
:1426D000009104010E94CA0292C088E08A8385E392E0998335
:1426E40088832BE632E008E70E940F0908EC10E00E9456022D
:1426F80088E08A838DE392E09983888325E732E000E80E94A8
:14270C000F09009104010E94CA0273C088E08A8385E492E01A
:14272000998388832FE732E008E80E940F09009104010E9474
:14273400CA0263C044271EC0AA2418C003E0142F010386E41F
:1427480093E01001280E391EEA2DFF27E20DF31D20803A2C2A
:14275C004424F001E30DF41D89EB92E0E80FF91F2082A39441
:1427700082E08A1528F7439587E08417F8F681EE92E09B836E
:142784008A8389ED92E09983888321ED32E009EB12E00E947D
:14279800E70688E08A8381ED92E09983888329EE32E000E9B2
:1427AC000E940F09009104010E94CA0222C088E08A8389ED8E
:1427C00092E09983888323EF32E008E90E940F090091040107
:1427D4000E94CA0212C022242092040188E08A8381EE92E05E
:1427E800998388832DEF32E000EA0E940F09009104010E94AC
:1427FC00CA0280911603813069F40E946609222420921603A3
:142810002092080320920A03209218032092150320901403DA
:14282400222009F4FEC1209024042092250420900B032220EF
:1428380009F46DC0222420921303809102018F7020900A0186
:14284C00220C220C220C220C220C282A209203018091020176
:1428600082958F708F708295803D21F4822D806180930301BF
:14287400809125048F7080932C03882329F544270DC08AEC5E
:1428880093E0E42FFF27EE0FFF1FE80FF91F22243324318216
:14289C002082439582E0841780F70E94B90444270DC08FED27
:1428B00093E0E42FFF27EE0FFF1FE80FF91F222433243182EE
:1428C40020824395433088F381E591E0E0912C03FF27E80F04
:1428D800F91F208020920001442716C010912C0303E0010389
:1428EC00100181EF93E0280E391EE42FFF27E20DF31D20807F
:142900008EEE93E0E42FFF27E80FF91F2082439582E0841715
:1429140038F720900C03222009F46BC0222420921303809138
:1429280002018F7020900A01220C220C220C220C220C282AA6
:14293C00209203018091020182958F708F708295803D21F4BF
:14295000822D806180930301222420920501809125048F7095
:1429640080932E03082F0E94EE08A02EA0922F0300912E0358
:142978000E940509A02EA092300344272AC010912F0303E05D
:14298C000103100186E493E0280E391EE42FFF27E20DF31D80
:1429A000208080ED93E0E42FFF27E80FF91F208220913003D5
:1429B400E42FFF27E80FF91F00810E945E0658018AEC93E0FE
:1429C800E42FFF27EE0FFF1FE80FF91FB182A082439582E009
:1429DC00841798F60E94B904209000012092060181E0809381
:1429F0000D0380930E0320900F03222049F122242092130353
:142A040000910A010E94CA0260912504677082E0861708F4C8
:142A180019C02090250423FE0BC084E191E0A62EBB24A80ECD
:142A2C00B91EF50180818F5F80830AC084E191E0A62EBB2484
:142A4000A80EB91EF5018081815080830E9490042090100331
:142A5400222011F122242092130300910A010E94CA02209062
:142A6800250422FE0CC083E08A8384E191E0998388832AE1CD
:142A7C0031E000E30E940F090BC083E08A8384E191E099836B
:142A900088832AE131E000E30E943509809113038230D9F4A2
:142AA40022242092130300910A010E94CA02609125046F700D
:142AB80060930A0181E08A838AE091E0998388832CE031E07F
:142ACC0000E10E940F0900910A010E94CA022090120322204A
:142AE00009F48CC022242092130380912404813499F482B3DB
:142AF400847F82BB0AEA0E94CA0209E40E94CA020FEF0E9431
:142B0800CA0202E00E94CA020BEB0E94CA0272C080912404CE
:142B1C00823499F482B3847F82BB0AEA0E94CA0209E40E94FC
:142B3000CA020FEF0E94CA0206E10E94CA020BEB0E94CA02A0
:142B44005BC080912404833499F482B3847F82BB0AEA0E94DA
:142B5800CA0209E40E94CA020FEF0E94CA020AE20E94CA027C
:142B6C000BEB0E94CA0244C080912404843499F482B3847F37
:142B800082BB0AEA0E94CA0209E40E94CA020FEF0E94CA02DB
:142B94000BE30E94CA020BEB0E94CA022DC08091240485348E
:142BA80099F482B3847F82BB0AEA0E94CA0209E40E94CA025A
:142BBC000FEF0E94CA0203E30E94CA020BEB0E94CA0216C00B
:142BD00080912404863491F482B3847F82BB0AEA0E94CA02A2
:142BE40009E40E94CA020FEF0E94CA020CE00E94CA020BEBC6
:142BF8000E94CA02222420920703209209032092170320921D
:142C0C000B032092110320920C0320920F03209210032092E4
:142C200012032092140320901A03222009F4EEC080911B03D9
:142C3400815080931B038F3F09F0E6C080911C038150809309
:142C48001C038F3F09F0DEC080911D038F5F80931D038031F1
:142C5C0009F0D6C0222420921D03809121038F5F8093210363
:142C7000833011F42092210360912D0377276F7070706130B3
:142C8400E0E07E0731F06230E0E07E0709F45EC0BBC0609178
:142C9800210377276030670751F06130E0E07E07F9F06230D6
:142CAC00E0E07E0709F433C0ABC02090520120920001442753
:142CC0000DC08AEC93E0E42FFF27EE0FFF1FE80FF91F2224A1
:142CD400332431822082439582E0841780F70E94B90492C043
:142CE800209060012092000144270DC08AEC93E0E42FFF27BA
:142CFC00EE0FFF1FE80FF91F2224332431822082439582E06E
:142D1000841780F70E94B90479C0442713C089E493E0E42FD4
:142D2400FF27E80FF91F208033248AEC93E0E42FFF27EE0F50
:142D3800FF1FE80FF91F31822082439582E0841750F70E9447
:142D4C00B9045EC06091210377276030670751F06130E0E055
:142D60007E0709F16230E0E07E0709F437C04EC0442713C0C9
:142D740089E493E0E42FFF27E80FF91F208033248AEC93E043
:142D8800E42FFF27EE0FFF1FE80FF91F31822082439582E045
:142D9C00841750F70E94B90433C0442713C08AE693E0E42FBB
:142DB000FF27E80FF91F208033248AEC93E0E42FFF27EE0FC4
:142DC400FF1FE80FF91F31822082439582E0841750F70E94BB
:142DD800B90418C020905D012092000144270DC08AEC93E070
:142DEC00E42FFF27EE0FFF1FE80FF91F22243324318220827E
:142E0000439582E0841780F70E94B90420902303222009F4FE
:142E1400E0C1809126038150809326038F3F09F0D8C1809151
:142E280027038150809327038F3F09F0D0C1809128038F5FDC
:142E3C00809328032090250320922703823009F0C4C122241A
:142E50002092280380912903813009F037C020922303209229
:142E6400240320902B032092000144270DC08AEC93E0E42F6E
:142E7800FF27EE0FFF1FE80FF91F222433243182208243952C
:142E8C0082E0841780F7442716C010912C0303E001031001B5
:142EA00081EF93E0280E391EE42FFF27E20DF31D20808EEE5A
:142EB40093E0E42FFF27E80FF91F2082439582E0841738F7A9
:142EC8000E94B90420902903222009F080C1822D8F5F80938F
:142EDC00290360912A036F70222420920001442719C0A42EAA
:142EF000BB24AA0CBB1C06E0162F010310018EE593E0280E06
:142F0400391EF501E20DF31D208031808AEC93E0F501E80F46
:142F1800F91F31822082439582E0841720F70E94B90455C1D7
:142F2C0080911E03815080931E038F3F09F04DC180911F0352
:142F4000815080931F038F3F09F045C1809120038F5F809375
:142F54002003803109F03DC1222420922003809122038F5F5F
:142F680080932203873019F481E0809322036091220377270C
:142F7C006130E0E07E07D1F06230E0E07E0709F442C0633041
:142F9000E0E07E0709F46BC06430E0E07E0709F493C0653002
:142FA400E0E07E0709F4BBC06630E0E07E0709F4E4C00FC110
:142FB800209060012092000144270FC08EE194E0E42FFF27EB
:142FCC00E80FF91F20808EEE93E0E42FFF27E80FF91F208269
:142FE000439582E0841770F744270DC08AEC93E0E42FFF2747
:142FF400EE0FFF1FE80FF91F2224332431822082439582E073
:14300800841780F70E94B904E2C02090600120920001442772
:14301C0022C08FE493E0E42FFF27E80FF91F208080ED93E010
:14303000E42FFF27E80FF91F20822227E42FFF27E80FF91F11
:1430440000810E945E0658018AEC93E0E42FFF27EE0FFF1F5B
:14305800E80FF91FB182A082439582E08417D8F60E94B904FE
:14306C00B4C020905C012092000144270FC082E194E0E42FF8
:14308000FF27E80FF91F20808EEE93E0E42FFF27E80FF91F30
:143094002082439582E0841770F744270DC08AEC93E0E42F16
:1430A800FF27EE0FFF1FE80FF91F22243324318220824395FA
:1430BC0082E0841780F70E94B90487C020905C012092000126
:1430D00044270FC082E194E0E42FFF27E80FF91F20808EEE77
:1430E40093E0E42FFF27E80FF91F2082439582E0841770F73F
:1430F80044270DC08AEC93E0E42FFF27EE0FFF1FE80FF91F40
:14310C002224332431822082439582E0841780F70E94B90412
:143120005AC020905C0120920001442722C08FE493E0E42F7B
:14313400FF27E80FF91F208080ED93E0E42FFF27E80FF91F8A
:1431480020822227E42FFF27E80FF91F00810E945E06580160
:14315C008AEC93E0E42FFF27EE0FFF1FE80FF91FB182A082BE
:14317000439582E08417D8F60E94B9042CC02090600120929A
:14318400000144270FC08EE194E0E42FFF27E80FF91F208031
:143198008EEE93E0E42FFF27E80FF91F2082439582E0841775
:1431AC0070F744270DC08AEC93E0E42FFF27EE0FFF1FE80F3C
:1431C000F91F2224332431822082439582E0841780F70E9403
:1431D400B9049BC92A9608958CE0809370008FEF8093730076
:1431E80084E08093740008950091740001700895FBDF00233B
:1431FC00E9F70091210408950E94DC1AC22E5801F1DF0023B8
:14321000E9F7C0922F04F50120802092300420FC11C041E0BB
:143224000DC0E42FFF27EA0DFB1D208080E394E0E42FFF27D1
:14323800E80FF91F208243954C1588F322242092220488EF88
:14324C008093210485EA809374000C94E31ACADF0023E9F7F7
:1432600022242092220488EF8093210485EA809374000895FA
:143274000E94CB1AC22E7801B9DF0023E9F7209022042220A3
:1432880089F0AA240DC080E394E0EA2DFF27E80FF91F20805B
:14329C00EA2DFF27EE0DFF1D2082A394AC1488F300912204FF
:1432B0000C94B51A2A923A920A931A938A939A93AA93EA93C5
:1432C400FA932FB62A920091710011270832E0E01E0709F472
:1432D80061C088E290E0801791074CF10031E0E01E0709F468
:1432EC0054C080E190E0801791077CF00030010709F4A2C0B7
:143300000030E0E01E070CF49DC00830E0E01E0709F441C02C
:1433140097C00831E0E01E0709F43EC00831E0E01E070CF417
:143328008DC00032E0E01E0709F488C087C00034E0E01E0788
:14333C0009F45EC080E490E08017910784F00033E0E01E07D3
:1433500009F478C00033E0E01E070CF473C00833E0E01E07C9
:1433640009F46AC06DC00035E0E01E0709F434C080E590E021
:143378008017910734F00834E0E01E0709F45EC05DC0083558
:14338C00E0E01E0709F443C057C0222420922E0420902F0424
:1433A00030902E04321498F4232C3324822D8F5F80932E04CD
:1433B40080E394E0E22DFF27E80FF91F20802092730085E8B8
:1433C8008093740042C081E08093220484E9809374003BC0DF
:1433DC0020902E043324822D8F5F80932E0480E394E0E22DDC
:1433F000FF27E80FF91F20907300208280912F04815020900A
:143404002E04281620F485EC8093740020C085E88093740064
:143418001CC080E394E0E0912E04FF27E80FF91F20907300F2
:14342C00208281E08093220484E9809374000BC085EA80930F
:14344000740007C0209071002092210484E0809374002990A1
:143454002FBEF991E991A9919991899119910991399029902F
:1434680018953A932A931A930A9308956894DA92D12E04C007
:14347C00E894DA92D12ED32617FF04C0109500950F5F1F4F6C
:1434900037FF04C0309520952F5F3F4F0E945B1AD7FE04C0E8
:1434A400109500950F5F1F4FD9900895689401C0E894EA9243
:1434B800FA928A93EE24FF2480E1000F111FEE1CFF1CE21665
:1434CC00F30618F0E21AF30A03958A95A1F716F40E2D1F2D12
:1434E0008991F990E9900895689401C0E8942A93FA92EA9221
:1434F400FF24EE2420E1000FFF1CEE1CE11610F0E11A0395D0
:143508002A95B9F70EF40E2DE990F99029910895EA93FA93A0
:14351C000A92E02FF12FD895002D3196D895102D3196D89591
:14353000202D3196D895302D0990F991E99108950A921A9227
:143544008A939A93029FC001129F900D039F900D8C01999183
:143558008991199009900895A990B990C990D9900895A9904C
:14356C00B990C990D990E990F9900895A990B990C990D9905D
:14358000E990F990499159916991799108957A936A935A93D9
:143594004A93FA92EA92DA92CA92BA92AA9208955A934A9387
:1435A800BA92AA920895A990B9904991599108955A934A933D
:1435BC00DA92CA92BA92AA920895A990B990C990D9904991F0
:1435D000599108957A936A935A934A93DA92CA92BA92AA923C
:1435E4000895A990B990C990D990499159916991799108958D
:1435F80000951095209530950F5F1F4F2F4F3F4F089568948A
:14360C0001C0E8940E94ED1C0E947F1C09F448C0E62CD52C6D
:14362000C42CB32EA22E912E802E00811181228133810E947C
:143634007F1C09F444C0842D952D8C199D09B9F072F49095F4
:14364800809501964C2C5D2C8831B8F535952795179507958D
:14365C000197D1F708C0883118F5B594A7949794879401970A
:14367000D1F766242EF0080D191D2A1D3B1D09C0801A910AEE
:14368400A20AB30A082D192D2A2D3B2D332322F40E94FC1A6B
:1436980080E8682E0E94A81C02C00E94DD1C0E94FC1C089506
:1436AC000081118122813381C6F70E94871CA9F380E838273B
:1436C000F2CF082D192D2A2D3B2D4C2C5D2C6E2C33233AF7D9
:1436D4000E94FC1A80E8682EE2CFFA93EA93EC2FFD2F329662
:1436E8000E94071BE991F99124960895FA93EA93EA81FB81BE
:1436FC000E94051BE991F99122960895FA93EA93EC2FFD2F4E
:1437100032960E94051BE991F991249608954A925A926A92FC
:143724008A930E948F1C11F15520E2F08FE14816C0F487E1F4
:143738004816D1F058F4419489EE481A05C03595279517956D
:14374C0007954A94D1F70EC087E1481A000F111F221F331FBD
:143760004A94D1F705C03FE7232F132F032F04C0662011F0B3
:143774000E94FC1A89916990599049900895689401C0E894DE
:143788002227332746F017FD209517FD309503C0689401C032
:14379C00E8944A925A926A928A9387E1482E5524662436F0B5
:1437B000332322F40E94FC1A80E8682E0E94A81C899169906A
:1437C400599049900895FA93EA93EA81FB8127D0E991F991A6
:1437D80022960895FA93EA93EC2FFD2F32961DD0E991F9917E
:1437EC0024960895FA93EA93EA81FB8114D0E991F9913983DD
:1438000028831A930A930895FA93EA93EC2FFD2F329607D032
:14381400E991F9913B832A831983088308950A921A922A9269
:143828003A920E94ED1C3A932A931A930A930081118122818B
:14383C0033810E948F1C09F457C0E62CD52CC42CB32EA22EAF
:14385000912E802E09911991299139910E948F1CA1F16E24BE
:143864004C185D0880E8481653060CF033C081E848168FEF34
:1438780058060CF436C080E23324232E122E012E302F2227C7
:14388C001127002726941794079437952795000F111F221FC1
:1438A000331F001C111C221C331C28F0081819082A083B081E
:1438B40004C0080C191C2A1C3B1C0AF001608A9551F70E94F2
:1438C800A81C0E94FC1C399029901990099008950FEF102FD0
:1438DC002FE73FE7662099F30E94FC1AF0CF0027102F202F5E
:1438F000302FEBCF0991199129913991EDCF0FD029F06620A9
:1439040011F00E94FC1A98940895002329F4112319F4222367
:1439180009F433230895F7DF99F08A93632E80E86822220F7B
:14392C00331F432E8FE7481A55248827580A269530E8232B41
:1439400033278991989408954424552466240895DEDF09F474
:143954000895AA93BA93D2019A938A938EE790E0332349F0A7
:143968003695279517950795A817B907CCF41196F5CF8095BD
:14397C00909501962223BAF0000F111F221FA817B90714F089
:143990001197F6CF0027112722273327899199912D01B991F8
:1439A400A991089533270FEF102F2FE7322F899199912D01B8
:1439B80002C0AA93BA93A7DF49F0D201A158BF4F2D01342D87
:1439CC00220F369527953629B991A99108954A925A926A92EB
:1439E0007A928A929A92AA92BA92CA92DA92EA92FA928A930A
:1439F4009A93089599918991F990E990D990C990B990A9906B
:143A080099908990799069905990499008950E94ED1CAA931F
:143A1C00BA930E948F1CE1F1E62CD52CC42CB32EA22E912EB7
:143A3000802E00811181228133810E948F1C71F16E244C0CD1
:143A44005D1C80E84816530664F581E848168FEF58066CF17D
:143A5800A29EB12DA02D919E912D802DA09E800D911DA31F9A
:143A6C00B31F829E800D911DA31FB31F929E900DA11DB31F28
:143A8000A19E900DA11DB31F2B2F1A2F092F880F001F111F05
:143A9400221F331F0E94A81CB991A9910E94FC1C08950FEF4C
:143AA800102F2FE78FE7482EF5CF0027102F202F302FF0CF32
:143ABC00FA93EA93EA81FB810E940B1DE991F99122960895E2
:143AD000FA93EA93EC2FFD2F32960E940B1DE991F991249641
:143AE4000895FA93EA93EC2FFD2F32960E940B1DE991F9914A
:143AF8003B832A831983088308950E94051B33233AF00E94A7
:143B0C00871C11F001E00895002708950FEF0895FA93EA931A
:143B2000EA81FB810E94811DE991F991229600230895FA9361
:143B3400EA93EC2FFD2F32960E94811DE991F99124960023D0
:023B48000895DE
:00000001FF
